:10000000E84A0020994200002D210100C942000069
:10001000C9420000C9420000C9420000C9420000B4
:100020000000000000000000000000006D40000023
:10003000C942000000000000154000001D19010029
:100040005942000059420000594200005942000044
:100050005942000059420000594200005942000034
:100060005942000059420000594200005942000024
:100070005942000059420000594200005942000014
:100080005942000059420000594200005942000004
:1000900059420000594200005942000059420000F4
:1000A00059420000594200005942000059420000E4
:1000B00059420000594200005942000059420000D4
:1000C00059420000594200005942000059420000C4
:1000D00059420000594200005942000059420000B4
:1000E00059420000594200005942000059420000A4
:1000F0005942000059420000594200005942000094
:100100005942000059420000594200005942000083
:100110005942000059420000594200005942000073
:100120005942000059420000594200005942000063
:100130005942000059420000594200005942000053
:100140005942000059420000594200005942000043
:040150005942000010
:04015400FFFFFFFFAB
:1001580053B94AB9002908BF00281CBF4FF0FF3126
:100168004FF0FF3000F070B9ADF1080C6DE904CE26
:1001780000F006F8DDF804E0DDE9022304B070477A
:100188002DE9F047089E0D4604468A46002B7FD18C
:100198008A42174641D9B2FA82F24AB1C2F1200125
:1001A80005FA02F39740944020FA01F141EA030A64
:1001B8004FEA17484FEA144C1FFA87F9BAFBF8FEC2
:1001C80008FB1EA30EFB09F14CEA0343994206D92A
:1001D800FB1802D2994200F224810EF1FF3E591A0F
:1001E800A3B2B1FBF8F008FB101100FB09F943EAD0
:1001F8000144A14505D93C1902D2A14500F20E815E
:100208000138A4EB090440EA0E4000211EB1D44095
:100218000023C6E90043BDE8F08702B9FFDEB2FA61
:1002280082F2002A4FD1CB1B4FEA174E1FFA87F8EC
:100238000121250CB3FBFEFC0EFB1C302B4608FBF2
:100248000CF945EA0045A9450AD97D192CBF0123B7
:100258000023A94502D9002B00F0D9800CF1FF3CFE
:10026800A5EB0905A3B2B5FBFEF00EFB105508FB84
:1002780000F843EA0544A04505D93C1902D2A04537
:1002880000F2C9800138A4EB080440EA0C40BDE73D
:100298008B4208D9002E00F0B1800021C6E9000584
:1002A8000846BDE8F087B3FA83F1002946D1AB428E
:1002B800C0F0A780824240F2A4800846002EAAD04F
:1002C800C6E9004AA7E7C2F12000974001FA02F305
:1002D8004FEA174EC14024FA00F51FFA87F89440F8
:1002E8001D43B1FBFEF02B0C0EFB101100FB08FCAC
:1002F80043EA01439C4509D9FB182CBF0121002181
:100308009C4502D9002900F095800138A3EB0C0325
:10031800ADB2B3FBFEF10EFB113301FB08FC45EA5D
:100328000345AC4505D97D1902D2AC4500F2898058
:100338000139A5EB0C0341EA00417AE7C1F1200439
:100348008B4002FA01F705FA01FCE24020FA04F8B2
:10035800E54000FA01FE134348EA0C024FEA13484D
:100368004FEA124C1FFA83F9B5FBF8FA08FB1A5545
:100378000AFB09F04CEA054C60450AD913EB0C0C52
:100388002CBF01250025604501D9002D55D00AF163
:10039800FF3AACEB000C92B2BCFBF8F008FB10CCB7
:1003A80000FB09F942EA0C4CE14505D913EB0C0CAA
:1003B80001D2E1453BD8013840EA0A40ACEB090CD0
:1003C800A0FB0789CC4545464A4602D306D1C64517
:1003D80004D20138B8EB070569EB03022EB3BEEB74
:1003E80005036CEB020C23FA01F20CFA04F42CFA64
:1003F80001F300211443C6E900430CE731463046B7
:1004080009E7841A65EB030301209A4656E7ACF125
:10041800020C3D4424E702383C4434E702383C44AB
:10042800EFE6AEF1020E3B44D9E63146F3E6023878
:100438009C44C1E702383B4468E7AAF1020A9C449D
:10044800A7E702393D4474E7704700BF0000000089
:10045800F0B5654D89B0D5F83431996811F00101CE
:100468001CD140F6034003AA05F0B2FB044600285D
:1004780040F0B780039B9B681B7863B905F1940330
:10048800184612F08EF800F00500D3E8EF2FC3E805
:10049800E10F0029F9D103980CF0D2FE002141F2B6
:1004A800030003AA05F094FB0446002840F0998055
:1004B800039B082299684D48013111F02AFF0398DF
:1004C8000CF0BEFE214641F2010003AA05F080FBB4
:1004D8000446002840F08580039883685A7885F898
:1004E8003420D9789A7842EA0122EA861A7985F87E
:1004F8003520197ADA7942EA01222A875A799B79D2
:1005080042EA03236B870CF09BFE214641F202006E
:1005180003AA05F05DFB0446002862D1039B402234
:1005280099683348013111F0F4FE03980CF088FE05
:1005380007F06EFA0446002853D195F84E309A0613
:100548001AD42C492C4B2D48C91AC908890141F0E5
:10055800020110F0ABFB95F840305B0652D4264BF5
:1005680024492748C91AC908890141F0010110F036
:100578009DFB6FF0120434E0072140F6334005F08C
:10058800EFFA074610B96FF036042AE00721083061
:1005980013F060FD21460722064611F0E5FE4523CB
:1005A80033700623224674703471394640F633405E
:1005B800F37005F00DFB044698B9012140F631406F
:1005C80005F0CEFA06460028DDD0012112F01CF80D
:1005D8002246314640F6314005F0FAFA0446002832
:1005E800B9D0204609B0F0BD000000203C00002032
:1005F80044000020305A0100005A01001D7D01000E
:100608004B7D0100002142F2030003AA05F0E0FA45
:1006180004460028E5D1039B08229968B4480131B3
:1006280011F077FE03980CF00BFE214642F202000F
:1006380003AA05F0CDFA04460028D2D1039B9B6893
:10064800B3F8012091B2A5F8C42021B1DA78A948FD
:10065800114614F066FD03980CF0F2FD95F8406021
:1006680016F0200600F01E8195F860301F0711D59E
:10067800002142F21C0003AA05F0AAFA0446002849
:10068800AFD10398836853F8012F5B68C5E9282325
:100698000CF0D6FD95F898309E0624D502A90DF1E8
:1006A800060005F05FFC044600289AD1042142F2B6
:1006B800240005F055FA064600283FF464AF0421EB
:1006C800083013F0C7FCBDF8063022460380BDF899
:1006D80008303146438042F2240005F079FA044696
:1006E80000287FF47EAF95F898305C062CD502215F
:1006F80042F22E0005F034FA044600283FF443AFD6
:100708000221083013F0A6FC6FF07B03037003236B
:1007180021464370002242F22E0005F059FA0446A1
:1007280000287FF45EAF014603AA42F22A0005F0D2
:100738004FFA044600287FF454AF039883685B7827
:1007480085F8E0300CF07CFD082142F2010005F04C
:1007580007FA044600283FF416AF0821084413F0AE
:1007680079FC95F8981040F2022311F0400F08BF69
:100778000323024688074CBF43F02C0043F00C00CB
:1007880095F899308F0648BF40F0400013F0090FE4
:1007980095F8663018BF40F4006003F00603CE07F2
:1007A80048BF40F01000062B08BF40F4C07000217D
:1007B80011F032FF2146002242F2010005F008FA4A
:1007C800044600287FF40DAF95F8403098061ED4F3
:1007D800B5F8C410D9B941F2050003AA05F0F8F933
:1007E800044600287FF4FDAEB5F8C43063B9039B16
:1007F8009B685A78997842EA0122A5F8C4209A8819
:100808003C48114614F08DFC03980CF019FD0821A2
:1008180040F6014005F0A4F9044600283FF4B3AEC1
:100828000821084413F016FC95F898300246D907B9
:1008380053D52DA1D1E9000111F0EEFE2146002289
:1008480040F6014005F0C4F9044600287FF4C9AE1B
:10085800014602AA4FF6014005F0BAF9264E274B89
:10086800F61AF608B601002854D0254846F00201C9
:1008780010F01CFA07F0DAFE044600287FF4B1AE47
:10088800014630221F4811F06FFD1F4BC5F84C314F
:10089800EB79002B40F0AE801C4846F0030110F0C5
:1008A80005FA9EE6022140F66D4005F059F9044626
:1008B80000283FF468AE0221083013F0CBFB012377
:1008C800214603704670324640F66D4005F080F9C7
:1008D800044600283FF4C8AE83E64FF000510C48A8
:1008E800AAE700BFAFF300809088000200800020D4
:1008F80098000020C8000020305A0100005A01006A
:100908006F7D010048010020215F0000437E010047
:1009180010880002029B3B489C6846F00303B4F829
:100928000120032A96BF3849384951F8221010F09F
:10093800DEF9B4F80110B4F80320022946F00303E5
:100948002ED1032A2CD8324951F82210314810F000
:10095800CEF9627946F00303032A96BF2E492B4944
:1009680051F822102D48CDE90312A27903A9059266
:10097800B4F807200692D4F809200792052210F04F
:10098800EBF902980CF05CFC00214FF6024002AA39
:1009980005F01EF9044628B1214846F0020167E730
:1009A8001A49D3E7029B1F4F99680222013107F1C8
:1009B800850011F0AEFC02980CF042FC97F88530E7
:1009C8005B077FF557AF21464FF6034002AA05F0B3
:1009D800FFF818B1144846F0020149E70122029BCA
:1009E80007F184009968114411F093FC02980CF007
:1009F80027FC3FE704210D4811F0DFFD06F05AF906
:100A0800EFE500BF937D0100F05F0100AA760100C9
:100A1800B05F0100AC7D010028600100C47D0100C9
:100A2800F17D0100000000201A7E010094000020E2
:100A380001480FF014BD00BFFC64010011B1034868
:100A48000FF00DBD02480FF00ABD00BF1A65010086
:100A58003A650100F8B50D46BDF818001C461E465B
:100A6800C318062B1146ED6829DC2246284411F0EC
:100A780050FC2F78134B082F13DD012118680FF055
:100A88002AFC394610480FF0EAFC10480FF0E7FC42
:100A98000F4F2C44A5420CD10E480FF0E0FC304615
:100AA800F8BD002118680FF016FC0B480FF0D7FCB2
:100AB800EBE7384615F8011B0FF0D1FCEAE76FF0B9
:100AC8000606ECE778110020456501005D65010028
:100AD80066650100456701005665010010B50D48BF
:100AE8000DF0BCFF0C4A106020B9BDE810400B485F
:100AF8000FF0B5BCC468836840F201221C211B6852
:100B0800984718B9236843F080532360044B186052
:100B180010BD00BF696501007811002070650100F3
:100B28007C11002070B5002088B006F03BF906461D
:100B380028B1014615480FF092FC08B070BD144862
:100B4800144D0FF08CFC03AC10F040FD124807F078
:100B5800FDF80FCD0FC42B681049236002223346DD
:100B6800009603A806F092FC014650B10C480FF01D
:100B780076FCFFF7B3FF00214FF400400EF0D0FDE4
:100B8800F9E708480FF06BFCF3E700BF9065010038
:100B9800B0650100005B0100E0010020C85B0100B6
:100BA800C7650100ED65010030B50A4C0A44914261
:100BB80000D130BD11F8013B58400309E35C83EADA
:100BC8000013DDB2C3F30313E05C80EA0510C0B282
:100BD800EDE700BF0F6601000B6801330B60014BA6
:100BE8001B681847FC010020014B1860704700BFC4
:100BF800FC01002007B50B4600210246019103487D
:100C080001A900F0FFF803B05DF804FBE10B000058
:100C180030B5002585B0CDE90101044601A9054894
:100C2800039500F0EFF8DDE902309842B8BF25548B
:100C380005B030BD410401002DE9F84FB0F8189017
:100C4800044619F0080893460DD001290CBF49F055
:100C5800100949F02009A0F818908BF31188BFF308
:100C68006F8FBDE8F88F09F00709022907D12046E0
:100C78000FF00FFC0028F0D00128238B50D16769B2
:100C8800218B002F15DA256821F00701C4E90088B7
:100C980041F0010121830026218B01F0070ACA4592
:100CA80002D0A368002B5CD10DB9002E74D00023AC
:100CB80058E001F007035A1F012A20D821F0070144
:100CC800062B256889B2C4E900880CD1002D2B4673
:100CD80038BF00232BB1628B1B6801326283002B63
:100CE800F8D141F00201204621830FF0D2FB0646DD
:100CF8000028D1D0238B43F020032383CBE7042B98
:100D08000CD121F0070189B2204621830FF0C1FBE5
:100D180005460028BFD041F0200121830025BAE70D
:100D2800032809D1226923F00703166843F0060354
:100D3800002523832F46AFE7042806D1226923F034
:100D48000703566843F00403F2E7052806D1226931
:100D580023F00703966843F00503E9E700252E46CC
:100D6800E8E7012341F0080121838BF31188BFF3E1
:100D78006F8F03BB002D33D116B120462049B047F1
:100D88004FF02003EFF3118B83F31188BFF36F8FBC
:100D9800238B23F008032383238BDA0628D501212C
:100DA80023F010032383B4F8189009F007090029E9
:100DB8007FF45BAF51E7A1680029DBD00B68002BFB
:100DC80038BF0023994652463B462046D1F804B026
:100DD800D847B9F1000FCDD04946D9F80030EEE731
:100DE80029463B46524620462D680FF06EFBC1E768
:100DF80013F020011EBF23F0200302212383D2E732
:100E0800FF0401002DE9F04F8B4692461C46002551
:100E180091B002909AF8000008B928465EE32528A8
:100E28000AF1010707D05946029B98470028C0F2EB
:100E38005583013510E2182200210AA811F094FA0E
:100E48009AF80130252B78D000229446164696460B
:100E58001046394617F8013B2B2B00F09D8000F215
:100E68009480202B00F09B80232B00F09A8028B1DF
:100E78009DF8300040F004008DF83000BEF1000FFE
:100E880005D09DF8300040F008008DF830002EB1F4
:100E98009DF8300040F010008DF83000BCF1000FD4
:100EA80005D09DF8300040F020008DF830002AB1C0
:100EB8009DF8302042F040028DF830209DF8302017
:100EC80002F04400442803D16FF386128DF83020D5
:100ED8009DF830202A2B42F080028DF830207BD1FB
:100EE8009DF831204B1C42F001028DF831201A7810
:100EF8002E2A0CBF012100219DF8312061F3410207
:100F08008DF8312074D15A782A2A6AD000210A260D
:100F18000133184610F8012BA2F13007092F40F2CF
:100F28008E809DF830200E91C2F3400040EAD171C6
:100F380061F341028DF830205AE00AF102078DF87A
:100F480033309DF83130D90740F1498154F8049B7A
:100F5800B9F1000F07DA9DF83020C9F1000942F015
:100F680004028DF830205A0740F1428154F8048B6E
:100F7800B8F1000F80F241819DF831306FF34103E1
:100F88008DF831304FF0FF3837E12D2B0CD0302B56
:100F98007FF46DAF01225CE74FF0010E59E701269F
:100FA80057E74FF0010C54E7012052E733460CFB9A
:100FB8000202303A1E4616F8010BA0F13007092F3D
:100FC800F4D9994293D09DF830100D92D20F62F364
:100FD80041018DF830108AE70B4600224FF00A0CC9
:100FE800E8E79DF83120023342F004028DF8312001
:100FF8001F4617F8012B6C2A41D025D8682A2BD018
:101008006A2A46D04C2A4CD01F4617F8012B9DF867
:101018003130782A8DF8332000F2D980572A4DD8FC
:10102800412A03D0453A022A00F2D18004229DF8D1
:10103800323062F302038DF8323001239EE006FB62
:1010480001210346303964E7742A26D07A2ADBD195
:1010580006229DF831300DE05A78682A9DF8312033
:1010680006D1012161F3C6028DF831209F1CCCE71F
:101078001346022262F3C6038DF83130C5E75A7869
:101088006C2A9DF8312001D10421EBE71346032295
:10109800F0E705229DF83130ECE707229DF8313062
:1010A800E8E7BDF8303023F4F04323F0020343F4BB
:1010B800804343F00203ADF83030A6E7A2F15801AF
:1010C800202900F2848001A050F821F09911000035
:1010D800D7110000D7110000D7110000D711000068
:1010E800D7110000D7110000D7110000D711000058
:1010F80035100000D71100009911000059110000A7
:10110800351000003510000035100000D711000020
:1011180059110000D7110000D7110000D7110000A5
:10112800D7110000A111000099110000BD110000A5
:10113800D7110000D7110000BD110000D711000021
:1011480099110000D7110000D71100009911000073
:1011580001209DF8321003F0780360F30201402B60
:101168008DF8321002BF9DF8301041F001018DF862
:101178003010632A31D1003B18BF01239DF830207D
:10118800C2F340010B4363F341028DF83020D8E6E7
:1011980002209DF83210DEE703219DF8322003F08B
:1011A8007803A3F1400061F3020243428DF8322034
:1011B8004341E3E703219DF8322013F0780F61F3F0
:1011C800020214BF012300238DF83220D6E79DF8D0
:1011D800303043F001038DF830300023CEE79DF91D
:1011E8003020002AACBF4FF0FF39DDF83490BAE662
:1011F8009B077FF5C7AEDDF838800023CDE90D33B6
:101208009DF832309DF8312003F00703012BC2F31B
:10121800C30236D1D31E042B20D8DFE803F003071E
:10122800071F1F0054F8040BC11704E0073424F00B
:101238000704F4E80201CDE90A019DF8303013F003
:10124800030654D03B465246594602980FF0D2FC4A
:101258000028C0F243810544BA46DBE554F8040B84
:10126800012A4FEAE071CDE90A0105D19DF828303D
:101278000A9300230B93E0E7022ADED1BDF9280088
:10128800D2E7022B23D1D31E042B13D8DFE803F0B7
:10129800030A0A12120000212068231D0A900B91EC
:1012A8001C46CAE7073424F00703F3E80201CDE936
:1012B8000A01F5E754F8043B012A0A934FF00003AA
:1012C8000B93D3D0022AB8D1BDF82830D0E7042B2D
:1012D80007D1073424F00704F4E80201CDE90A0134
:1012E800ABE7032B04BF54F8043B0A93A5E79DF82A
:1012F80033007828B0D8622822D825283FF493AD47
:101308005828A9D1DDE90A010DF1260300930CAA9A
:1013180004AB0FF024FC8246B8F1000F0DF1260053
:101328000CDB9DF83020A0EB0A036FF3861298457A
:101338008DF8302002D9A8EB03030D9380463DE0D9
:101348006338152888D801A151F820F0D51300007A
:1013580039140000611200006112000061120000DF
:1013680061120000391400006112000061120000CF
:10137800611200006112000097140000651400005B
:10138800691400006112000061120000AD13000032
:101398006112000065140000611200006112000073
:1013A80065140000B8F1000FDDF828A00ADB4146FB
:1013B800504610F07AFF00260AEB0008BAF1000F39
:1013C8000CD149E7504610F069FFF4E700260A9B64
:1013D8000DF111088DF810300DF1100AA8EB0A0371
:1013E80006B101339DF83220D0066BD50233520680
:1013F8000D9948BF0E9A0B4448BF9B18B9F1000FCE
:1014080079DD9DF83020A9EB0309C2F3800303932B
:10141800530770D4500664D546B159463046029BEE
:10142800984700285ADB039B01351E46302359E0B4
:101438001E0711D413F0100618BF2026DDE90A2371
:10144800002A73F10001BFF65DAF524263EB43031C
:101458002D26CDE90A2355E72B26EFE7002651E78D
:101468000A9848B30DF126030093002104AB0CAA97
:101478000FF075FBBDF83230824603F0EF0343F4FA
:10148800F04343F010030026ADF8323044E70A9BDE
:10149800072A3FF6E1AEDFE802F00D04060D080862
:1014A8000D0D1D70D8E61D80D6E62846E917C3E95C
:1014B8000001D1E61D60CFE6DFF8C4800646A8F13A
:1014C800050A8BE7110748BF013390E718460393D5
:1014D8005946029B98470028039B04DA11B0BDE8DF
:1014E800F08F20234D444A46002AA5EB090109F153
:1014F800FF39EBDC0D4636B159463046029B98471A
:101508000028EBDB01359DF83230D90601D41A07E3
:1015180006D559463020029B98470028DEDB013566
:101528009DF83230DB0607D559469DF83300029BFB
:1015380098470028D2DB01350D9E2E44731B002BE3
:1015480016DC43465246594602980FF053FB0028D2
:10155800C4DB0544A944A9EB0503002B7FF77CAE47
:1015680059462020029B98470028B7DB0135F2E74F
:1015780059463020029B98470028AFDB0135DDE74C
:1015880024660100134B10B51B68072B20D1124BA2
:101598001B68023B032B1BD8104AD35CC3B1104B0A
:1015A800104C1148E41AE408A40144F0010421464F
:1015B8000FF07CFB21460D480FF078FB21460C48C4
:1015C8000FF074FB404080F311884FF0040002DFF5
:1015D800002010BD3001FF003401FF00A2660100A9
:1015E800005A0100E05A0100256601005266010018
:1015F80079660100094B0A4900F01F0240090128D9
:1016080008BF0B4603EB8203D3F8002222F0E04226
:1016180042F04052C3F80022704700BF00258450B2
:101628000028845070B54FF02003EFF3118683F340
:101638001188BFF36F8F01240B4D0C4B0020C3F8AA
:101648000045C5F8D046FFF7D5FF2046FFF7D2FF83
:10165800C5F80447C5F80449C5F8004B86F3118856
:10166800BFF36F8F002070BD004000500010005085
:1016780048B1054B1A68054BB2FBF3F2044B5043D3
:1016880043F0010318477047B803002040420F0099
:10169800C05B010030B5002289B00F490F4813F034
:1016A8003CFE002200230024CDE906230E230C4D26
:1016B800CDE903344FF440722846CDE90144094B83
:1016C800094900940EF0ECF80849284613F043FD48
:1016D800204609B030BD00BFF916000010080020F0
:1016E80048080020E11A0000202E0020A66601000C
:1016F80001480EF03DB800BF8806002008B500F08C
:1017080049FA09480FF08FFA0423282207490848A4
:1017180013F01CFB074B084A4FF400401A60BDE861
:10172800084000F07FBC00BF8C110020285C00201E
:1017380094110020000200206D0C0100F8B500256E
:101748000C4BD3E8EF7FC3E8E25F002AF9D10A4CDB
:101758000A4E361B3611B54200DBF8BD63685B796B
:101768002BB12368DB6813B1394620469847013509
:101778001034F0E784110020F05A0100005B0100EA
:10178800044BD3E8EF2F0132C3E8E12F0029F8D149
:10179800704700BF84110020044A054B9B1AB1EB27
:1017A800D30F34BF52F8310000207047005A0100AF
:1017B800F05A0100094B4268C31A1B11013310B5D6
:1017C800137101224368064C5A712278196012B9C4
:1017D80004480DF0CDFF0123237010BDF05A01001D
:1017E800122D00208806002070B50F4BD3E8EF5F5C
:1017F8006A1CC3E8E12F0029F8D12DB90B4C0C4E17
:10180800361B3611B54200DB70BD237B43B123681C
:101818005B6903B19847042200212046FFF7CAFFFD
:1018280001351034EEE700BF88110020F05A01009E
:10183800005B0100144B37B59842044602D3134BA2
:1018480098421CD300220023114801A90DF0A0FAE8
:101858000546B8B90122019BD3E8EF1FC3E8E02F82
:101868000028F9D1019821461F22043010F003FD09
:101878007E23019C84F8233084F8245004342046C5
:1018880003B030BD034CFAE774560100B89101006B
:1018980094110020AE66010048B1054B984205D36B
:1018A800A03398422CBF00200120704700207047C9
:1018B800285C00202DE9F04F4A4B04461B7885B080
:1018C80003B940B34FF02003EFF3118683F3118877
:1018D800BFF36F8F44480FF0B6F9054686F31188B9
:1018E800BFF36F8F58B1414BD3E8EF2F013AC3E8EC
:1018F800E12F0029F8D194B128460FF0B9FA24B99C
:101908003B4B1B680BB1FFF719FF37480FF099F9EC
:10191800041E18BF0124204605B0BDE8F08F354BE2
:101928001B78CBB92B7ADB0716D40FF0B0FA8046B8
:1019380028460FF07BFA014640460FF097F9064615
:101948002D4F2E4BDFF8D0B0DB1BDB0803932C4B5D
:10195800DB1B4FEAD30A36B92A4E2B4F4FF000084B
:10196800BF1B3F113AE0B6FA86F1C1F11F0949469B
:1019780028460FF05EFA254B0146984202D3244BC5
:1019880098421AD30846FFF787FF0246A8B9214BA9
:10199800994212D06B890399C3F389138B4238BFDC
:1019A80057F833204FEA8A1343F00103ADF80030AB
:1019B8004946434658460FF0B3F9012101FA09F1A7
:1019C80026EA0106C7E773685B7923B133682946BD
:1019D80030461B68984708F101081036B845F2DB15
:1019E8008AE700BF122D00208C11002080110020F2
:1019F80084110020132D0020005A0100F05A010024
:101A0800985A0100F05A0100005B01007456010069
:101A1800B8910100AE660100C8660100274B73B596
:101A28001B68418104469847254DE060D5E8EF3FA3
:101A38000133C5E8E23F002AF8D14FF02003EFF365
:101A4800118683F31188BFF36F8F1E4821460FF06C
:101A5800EEF886F31188BFF36F8F1B4B1B7883B1A9
:101A68004FF02003EFF3118483F31188BFF36F8FD6
:101A78000020FFF71FFF84F31188BFF36F8F02B0B8
:101A880070BD124A2B681268002AF8D0012B0AD1BF
:101A9800002200230E48CDE900234FF40042002322
:101AA8000EF0B0F9EBE70A2BE9D1094813F041FC35
:101AB800084802B0BDE870400DF05ABE0002002090
:101AC800801100208C110020132D0020B01100205F
:101AD800100800208806002010B5FFF785FE0DF0DD
:101AE80041FE0C4B186030B10B4B1B68092B02DD13
:101AF8000A480DF03DFE094C0020FFF7DBFE0028E8
:101B0800FAD14FF0FF324FF0FF3320460DF056FE6A
:101B1800F2E700BFB01100208011002088060020E5
:101B2800F8B50E4F3D7875B9FFF75EFE0C4C0D4EBB
:101B3800361B3611B54207DB0020FFF7BBFE002835
:101B4800FAD101233B70F8BD63685B791BB1236848
:101B580020461B69984701351034EBE7132D002008
:101B6800F05A0100005B010007B504380190D0E885
:101B7800EF3F5A1EC0E8E12F0029F8D1012B03D10D
:101B8800034801A90DF036F903B05DF804FB00BF66
:101B980094110020202302491A46024813F0D6B8AF
:101BA800C85C0020B4110020002337B5094D01930B
:101BB8000120FFF77FFE0446FFF7E2FD0022002325
:101BC800284601A90DF0E4F808B1002CF0D10198DD
:101BD80003B030BDB4110020002307B500220193E3
:101BE8000648002301A90DF0D3F810B1FFF7DCFF78
:101BF8000190019803B05DF804FB00BFB411002008
:101C0800F0B5037A457A85B00190D8074FEA1515E3
:101C18001CD4DDB100242646314601980FF009F99D
:101C28000746FFF739FE70B134B9019B2946186998
:101C38000FF01CF8044648B124FA06F3D90702D578
:101C48003846FFF791FF0136AE42E5D3019B1A7A79
:101C5800920704D55B69084C0393039B2BB906488C
:101C680001A90DF0C7F805B0F0BD1D68204603A90D
:101C78000DF0C0F80395F0E7B41100200EB403B5D9
:101C880003AB53F8042B014604480193FFF7BAF855
:101C980002B05DF804EB03B0704700BF3F120100CB
:101CA8002DE9F04F11F0020485B0904606461A4619
:101CB8009DF8387001F0010901F0080507D011F00E
:101CC800440F37D13249FFF7D9FF01460C46B9F125
:101CD800000F0AD02F4B304653F827202E4B2F49A0
:101CE800002A08BF1A46FFF7C9FF3DB12C4B304602
:101CF80053F827202B49FFF7C1FF0546B8F1000F1D
:101D080043D0012303FA07F7274B17F0100F274F8B
:101D180018BF1F46BDF840109DF83C00FFF73CFD7A
:101D2800394602463046FFF7A9FF2844204405B04B
:101D3800BDE8F08F1E4B19680029C7D01D4B4FF422
:101D4800616E1B684FF47A7CB2FBF3F3B3FBF1F4DA
:101D5800B4FBFEF20EFB124E01FB14340CFB04F430
:101D6800B4FBF1FB4FF03C0A01FB1B440CFB04F4F1
:101D7800BEFBFAF3B4FBF1F1CDE901B10AFB13E1C3
:101D880000910D49FFF77AFF9FE7084FC2E700BFB0
:101D980019670100285C01000B670100B57C010090
:101DA8003C5C01003E6701001567010010670100F7
:101DB800D0110020D41100202267010038B50C464C
:101DC800E107054603D5084A0849FFF757FFE20629
:101DD80008D4A3062846BDE838404CBF0449054945
:101DE800FFF74CBF38BD00BF0B670100B57C010091
:101DF80045670100446701002DE9F0471D46089B2F
:101E08001746DA0604460E4605D499064CBF2A49F9
:101E18002A49FFF733FF4FF00008DFF8A890A845DC
:101E28002ADB0025DFF8A080DFF8A090DFF894A077
:101E3800BD422FD249462046725DFFF71FFF01358C
:101E4800102D20D120461E49FFF718FF0025DFF886
:101E58007480DFF87C90AF4228D9725D4946A2F1C0
:101E680020035F2B28BF2E222046FFF707FF0135EE
:101E7800102D14D1BDE8F08749462046FFF7FEFE35
:101E880008F10108CBE76A07D2D151462046FFF78F
:101E9800F5FECDE741462046FFF7F0FECFE76B079A
:101EA800D9D141462046FFF7E9FED4E7414620460E
:101EB800FFF7E4FEDBE700BF456701004467010068
:101EC8004D67010089900100879001004767010074
:101ED800666501002DE9F0478B7A174613F007086D
:101EE80005460E460A7A8AB021D0D2434989C3F3FF
:101EF800C203C1F38911CDE900830291F368394621
:101F080002F00102FFF7CCFE8146347AE44314F074
:101F180001040ED0294630460FF023F8B8F1000F1F
:101F28002BD0424639462846FFF748FF25E0C146F0
:101F3800EBE7B8F1000F26D12746EB6806AA06930F
:101F480030463B46A9680EF0F8FF069A6B681A609F
:101F58003AB1AB68134413F8014CA4F10A035C428C
:101F68005C4128460FF05AF9069B1F44002BE4D128
:101F78001CB128461349FFF781FE28460FF04EF999
:101F88000AB0BDE8F08730460EF081FF0E490246E0
:101F98002846FFF773FE4FF0100A05AA234630467D
:101FA80006A9CDF814A00EF0C8FF059A002AB8D0EB
:101FB8004B462846009706A9FFF71EFF059B1C44C1
:101FC800EBE700BF4F670100B57C010042F20F73D9
:101FD80073B58B4228BF0B46056804460521684641
:101FE8000D4A0EF049FA0646636828460B225B68DC
:101FF8000A490EF0A9FF63683246694628465B68BD
:102008000EF0A2FF63681B2228465B6804490EF0A5
:102018009BFF02B070BD00BFC58601008D6701003F
:102028007167010001230021074A10B5074C1360AE
:10203800A04204D801B11360054B186010BD0121FE
:1020480040085B00F4E700BFD411002040420F00B5
:10205800D0110020F8B50D460446064F4618B44284
:1020680001D12846F8BD386814F8011B83685B68FD
:102078009847F4E7EC11002001480FF0CFB800BFF3
:10208800685C01000148FFF7A1BF00BF685C010060
:1020980008B503480CF0E2FC024B186008BD00BF0D
:1020A80099670100EC11002010B50C4608460EF0A7
:1020B800B4FE214604480F22FFF70CFF2046BDE876
:1020C80010400EF0D5BE00BF685C01001FB50724A4
:1020D8000294044C0194BDF81840009411F001FBDF
:1020E80004B010BD1D0500202DE9F7430E468046BB
:1020F8000821C06A0FF045F9124B07469946346823
:10210800241A346004EA0305AC4203D8002003B063
:10211800BDE8F08308236A46214640460FF0BFF821
:102128000028F4D168460FF017F940B9BDF802301D
:10213800BDF8042005EA090513441D443460E41B76
:10214800E2E700BF0000FFFF2DE9F04F082195B03E
:102158000546C06A0FF015F980466B68E8891B0CC4
:102168001B0403A903930FF016F9039BA98906AE74
:102178001944A1EB080108233246284604910FF0C0
:102188008EF8041EC0F29980EB6A1A790023F15C7C
:10219800914240F081800133082BF8D128460399F9
:1021A8000FF004F9044688E0049BBDF81A201B0CC4
:1021B8001B0413440493DFF80CB1284608AA04A9A9
:1021C800DDF810A00FF01AF90446002875D108A808
:1021D8000FF0C2F8002836D16B68059328460AAA82
:1021E80005A9059E0FF00AF90446002865D1BDF837
:1021F8002820BDF820309A4228D06A68059B9A4268
:10220800ECD156451FD1BDF82430E3B1BDF82230DA
:102218000AEA0B071F44AB6808A8ADF822300FF094
:10222800A7F8EB6ABDF824901E68764206F02003F2
:102238000193B9F1000F0FD1284608A90FF076F9DC
:102248000446002839D1C245B7D1A7E70AA80FF03C
:1022580083F80028D1D1D4E7019B39464B4528BFE4
:102268004B4628460CAA1E460FF019F8044620BB18
:1022780036B133462846A9680CAA0FF00FF9044670
:102288003146E86A0FF07DF8AA680244AA60A4B94A
:10229800A9EB06093744CCE70498A0EB08083046B8
:1022A8000FF05AF800283FF47FAF284604A9FFF73B
:1022B8001BFF044600283FF47EAF204615B0BDE85A
:1022C800F08F00BF0000FFFF2DE9F04704460D46E0
:1022D80086B000F11406304612F053FD28460CF083
:1022E800BDFBA06278B99F4B9F49A048C91AC9088D
:1022F800890141F001010EF0D9FC6FF0050528466F
:1023080006B0BDE8F08783681B699847E06260B94A
:102318009549944B9648C91AC908890141F00101A9
:102328000EF0C4FC6FF01505E9E7A06A83681B6925
:1023380098470368013B1F2B08D98B49894B8D4867
:10234800C91AC908890141F00101E9E7A06A2168B1
:1023580003AA11F0E4FF40B18349824B8648C91AA9
:10236800C908890141F00101DAE7A3892BB1049A70
:10237800B3FBF2F502FB153545B17B49794B7F4834
:10238800C91AC908890141F00101C9E7E389012B8C
:1023980008D87549734B7A48C91AC908890141F0A8
:1023A8000101BDE7E36A009593F804904FF0FF320E
:1023B8004FF0FF3330460CF049FD0821E06A0EF07B
:1023C800E0FF2F468046E3891FFA85FA53456DD80A
:1023D800E389BB4200F0A9809A450CD100990823F3
:1023E8004A462046A1EB08010EF091FF18B969464C
:1023F800E0890EF0D0FF009B624FA3EB08023B4040
:102408006260A360D4E9011399420FD308232046E0
:1024180001AA0EF044FF054620BB01AB13F8012BBF
:10242800914540F085800135082DF7D1D4E9013177
:102438008B4207D94A4620465B1A0EF068FF051EF4
:1024480010DB56D163684F4F69463B40E0890093E3
:102458000EF0A1FF4A462046A38900990EF057FFC7
:10246800051E4CDA30460CF069FD002D7FF447AFAD
:1024780001233D4E23743B4BA289F61AF608B60198
:1024880046F003063346E1893F480EF030FC6168A8
:1024980033468AB23D48090C0EF029FCA168334640
:1024A8008AB23B48090C0EF022FC28E7A1892B04CC
:1024B800A1EB080113FA81F14A460823204600914E
:1024C8000EF025FF70B16946E0890EF064FF013710
:1024D80008234A4620460099BFB20EF018FF00288C
:1024E8003FF476AF01356EE7002D36D06FF01C054E
:1024F800B8E7E26AA36812681344A36096E7B1D00C
:10250800204661680EF052FF05460028AAD163688C
:10251800A0893B400344A3EB480060603840A060BA
:102528002046FFF711FE05469CE76FF0200599E766
:1025380001A80EF011FF626878B9009BBDF806008B
:10254800BDF808503B400344A3602946E06A0EF0FA
:1025580018FF03449342A360C6D0A2EB080262604E
:1025680050E700BF005A0100885A0100ED670100DA
:10257800096801002B6801004868010060680100D3
:10258800746801000000FFFF97680100AE68010051
:10259800C06801002DE9F04F1E46037C04468946B9
:1025A800904689B07BB9694B69496A48C91AC90814
:1025B800890141F001010EF079FB6FF00C05284606
:1025C80009B0BDE8F08FC36A082118460EF0D9FE9D
:1025D8008246314618460EF0D4FEA3890AEB4A0219
:1025E8009B1AB3420746C0F0AB801EB1B8F1000F8A
:1025F80000F0A68063680393204604AA03A9DDF8C7
:102608000CB00EF0FBFE05460028D8D1BDF81030FE
:102618004B4505D06268039B9A42EDD1DEB9CEE7FF
:1026280004A80EF099FE0028F4D1BDF8143086B144
:10263800B34210D1BDF812004FEA1B41090401440E
:102648003346424620460EF038FE002803DC054695
:10265800B5E7002BB3D0002F3FD104F1140A4FF097
:10266800FF324FF0FF3350460CF0F0FB0022DFF84A
:10267800E8B0E3899A4260D0D4E9013178188342FE
:102688002ED3FF2306A8ADF81890ADF81A10ADF8B0
:102698001C608DF81E300EF06BFE36B13346424694
:1026A8002046A1680EF0FAFE05463146E06A0EF0B3
:1026B80068FEA3680344A360002D44D1204606A900
:1026C8000EF034FF054600283DD1334601935046AD
:1026D8000CF034FC019B1D4671E75744BFB2BCE7C0
:1026E8000821E06A01920EF04CFE4FF6FF71ADF83A
:1026F80018100021ADF81C101918ADF81A10A1898E
:1027080003EA0B030B44181A606006A80EF030FEAB
:1027180006A920460EF00AFFE089211D0EF03BFEB7
:102728006368204603EA0B03A360FFF70DFD034629
:102738000028CBD1019A01329BE76FF01B03C5E754
:102748006FF015053BE72B46C0E700BF005A0100B4
:10275800885A0100D96701000000FFFF2DE9FF47F3
:102768001E46037C04460F469046BDF8309073B968
:102778002B4B2C492C48C91AC908890141F0010181
:102788000EF094FA6FF00C0004B0BDE8F087082151
:10279800C06A0EF0F6FDA389A3EB4003B3423BD316
:1027A8004FF0000A63680193204602AA01A9019D1F
:1027B8000EF024FE0028E7D1BDF80830BB4207D14F
:1027C80002A80EF0C9FD18B90AF1010A1FFA8AFA1F
:1027D8006268019B9A4218D0CA45E5D9BDF80C3009
:1027E800BBB1CA4515D3BDF80A102D0CB3424FEA48
:1027F800054528BF33464246204629440EF04FFD82
:102808000028C1D1BDF80C00BEE7BDF80830BB42B6
:10281800E4D06FF00100B7E76FF01500B4E700BF30
:10282800005A0100885A0100D9670100014B19704C
:10283800704700BF000007200020014B1870704748
:1028480000000720014B186812F096B8001200200B
:102858000D4B13B518680023826800931946146855
:102868001A46A047014660B1084B094A0948D21ADE
:10287800D208920142F0010202B0BDE810400EF009
:1028880022BA02B010BD00BFF0110020005A0100AA
:10289800C85A0100D86801000749D1E8EF3F43F062
:1028A8000102C1E8E02F0028F7D1DB0703D4034871
:1028B800083912F0EABA7047FC110020D00800204D
:1028C800F0B55F4B85B00293062306468DF80C30B1
:1028D8000D464FF0FF334FF400625A495A480DF045
:1028E8007DF85A495A4812F036FC0022594B5A4989
:1028F80002A8C3E901121A600BF092FD044668B100
:10290800564A574B0146D21AD2089201554842F00E
:1029180001020EF0D8F9204605B0F0BD52480BF080
:102928005FFD044648B14D4A4D4B0146D21AD208C4
:1029380092014E4842F00102EBE74D494D4801AA89
:1029480011F093FD044648B1444A454B0146D21A5A
:10295800D2089201484842F00102DAE7019B9A68DE
:102968005AB930603E4B3D494448C91AC9088901E3
:1029780041F001010EF09AF9CDE70C333360002BDA
:10298800F0D03F480CF06AF83E4F38603E480CF0F3
:1029980065F83A6862B93149314B3C48C91AC908E7
:1029A800890141F001010EF081F96FF01204B2E7DC
:1029B80040B92A492A4B3648C91AC908890141F041
:1029C8000101F0E7836822465B68324998470EF0B8
:1029D800CEFD314F386060B92049214B2F48C91AC4
:1029E800C908890141F001010EF060F96FF00B048C
:1029F80091E70EF0BCFD786040B91849184B28489B
:102A0800C91AC908890141F00101EDE73268254B6F
:102A180010215A61244A3F685A60042236689A6035
:102A28001A620222DE62214EAA62214A9984DE617C
:102A3800986199811F60AC612A62EB626BE700BF05
:102A480079E4000020310020D0080020F668010059
:102A5800E8080020F41100204D280000C85A0100A1
:102A6800005A0100016901004C020020246901009C
:102A78004F69010059690100616901007E6901001F
:102A8800A08E0100F0110020AA690100B0690100C0
:102A9800D3690100A128000000120020F669010096
:102AA8001F6A01001C02002000FC072000F8072014
:102AB800045D01002DE9FF410D46224C06462168C0
:102AC800284617460FF0FAFBA04698B12846E16C55
:102AD8000FF0F4FB68B129461B4B1C4A1C48D21A5C
:102AE800D208920142F0010204B0BDE8F0410EF0B4
:102AF800EAB801204C244443164B04F10800029321
:102B0800444463682A46CDE9007331464FF0FF33E9
:102B180040440BF049FD024668B10B490B4B0E4887
:102B28005B1A2946DB089B0143F0010304B0BDE8AA
:102B3800F0410EF0DCB8012384F8483004B0BDE859
:102B4800F08100BF08120020005A0100D05A01008D
:102B5800566A010091150100806A010037B5194DC8
:102B680019492846FFF7ACFE044668B1174A184BC6
:102B78000146D21AD2089201164842F001020EF01C
:102B8800A2F8204603B030BD134C4FF47C422046D7
:102B9800124912F068F800942B68114A0A49114842
:102BA8000BF03CFE044648B1084A094B0146D21ACC
:102BB800D20892010C4842F00102E0E701220B4BD7
:102BC8001A70DEE7A012002070090020D05A010018
:102BD800005A0100B16A01003413002000040720E4
:102BE800BD2A0000A4120020D96A0100152D00207A
:102BF80038B5114B04461B78D3B9104B18681A46E0
:102C080080B1DB6C6BB10E4B0E4A0F48D21AD2085A
:102C18009201214642F001020EF055F86FF00B00C8
:102C280038BD01204C234343D518D4506960F7E7D9
:102C38006FF04300F4E700BF152D002008120020B4
:102C4800005A0100D05A0100F36A01004C22034BDC
:102C580002FB003090F84800704700BF08120020BF
:102C680037B54C240B4601214443CDE90021054DDD
:102C780028190834D0E90B1228190BF083FC03B08B
:102C880030BD00BF08120020094B30B51D68094B44
:102C980002461C6800239D4201DC002030BD19015A
:102CA800615C04EB03109142F8D00133F3E700BFF5
:102CB800485D0100A4020020084B10B51B680C46B3
:102CC8002BB1FFF7E1FF28B12060002010BD6FF0A5
:102CD8000C00FBE76FF00100F8E700BFA40200203A
:102CE80030B589B00C4615460190FFF7CDFFB8B155
:102CF8004368226802938368C068CDE903350023DE
:102D0800CDE9062305930EF041FC60B1074901AAFD
:102D180011F009FB079808B9059B236009B030BD7D
:102D28006FF01500FAE76FF01200F7E79915010048
:102D3800104B2DE9F0411C6805460E461746ACB10C
:102D48004FF0FF324FF0FF330B480CF07FF8636809
:102D58003246D3F8088029463B462046C0470446F9
:102D680005480CF0EBF82046BDE8F0816FF001044F
:102D7800F9E700BF48130020600600200023036025
:102D8800044B5A6812B9C3E90000704710605860D4
:102D9800704700BF40130020014B1860704700BF08
:102DA80048130020002330B585B00546CDE902332D
:102DB80001904FF0FF334FF0FF320D480CF046F80A
:102DC8000C4B1C68002C38BF00243CB163682046BB
:102DD8001B6801A998472468002CF6D1284600F002
:102DE800D7F8044602480CF0A9F8204605B030BDD3
:102DF80060060020401300201FB5CDE901010392B1
:102E08004FF0FF334FF0FF320B480CF01FF80B4B1D
:102E18001C68002C38BF00243CB1636820461B683E
:102E280001A998472468002CF6D103480CF086F8CD
:102E3800002004B010BD00BF600600204013002031
:102E48000022024BC3E90022704700BF4013002054
:102E58000022024BC3E90022FFF7F2BF4C13002007
:102E68002DE9F34107460E4609B100230B60002502
:102E78001D4CDFF87C80444508D31C4B1C680CB102
:102E8800143CC4B9284602B0BDE8F0813846216830
:102E980001AA0EF0A2FB60B125B90EB1019B336007
:102EA800254606E00022296820680EF096FB0028D7
:102EB800F3D11434DFE73846216801AA0EF08DFB00
:102EC80060B125B90EB1019B3360254606E00022AA
:102ED800296820680EF081FB0028F3D114F1140F43
:102EE800D0D06469CBE700BF885901004C1300209B
:102EF800005A01002DE9F04385B0DDF83080054621
:102F08000C4616461F460390B8F1000F18D0D8F8A3
:102F1800001081B103AA0EF060FB60B9002007E041
:102F2800D8F808303246009321463B460398C847F4
:102F380005B0BDE8F083D8F80490B9F1000FEFD1DF
:102F4800284603A9FFF78CFF0028E7D03246D0F8BF
:102F580008803B4621460398C04706460028DDD036
:102F6800084B094C2846E41AFEF764FCE408A4015F
:102F780044F0010401462346324604480DF0B7FEEA
:102F8800CCE700BF005A0100D85A01003A6B010093
:102F9800F8B506460025194C194FBC4206D3194B03
:102FA8001C680CB1143C9CB92846F8BD1EB9E368EE
:102FB8004BB91434F1E70022314620680EF00DFBBE
:102FC8000028F4D1F5E79847002D08BF0546F0E73B
:102FD80036B9E36863B914F1140FE5D06469E0E722
:102FE8000022314620680EF0F8FA0028F1D1F2E705
:102FF8009847002D08BF0546EDE700BF8859010036
:10300800005A01004C13002010B5064C23783BB938
:10301800FFF71EFF00F064F808B90123237010BD04
:103028000020FCE7162D00202DE9F0478046894650
:10303800048FDFF8A8A0013498B0A4B200F1080604
:10304800651EADB2B5F5004F45D04A23294605AAFD
:1030580030460EF080FA04F57F543F34A4B2074698
:103068002146012330460DF10B020EF074FA002FB1
:10307800014603DC002803DC2C46E1E7002816DCC7
:10308800B8F83830AB4209D142466B1E22F8383FB7
:103098004FF4004102233046FFF77CFA29463046B8
:1030A8000EF055FA214630460EF051FAE4E718AB17
:1030B8001F440023524607F84C3C05A8CDF8009061
:1030C80003AB0396ADF81040FFF714FF0028D3D0E8
:1030D80018B0BDE8F0870020FAE700BF55160100D8
:1030E8007FB50125694628460195FFF7E5FD0446A9
:1030F800002836D1284602AA01A9FFF7F1FD10F1F0
:10310800130F04462DD038B10C3405D0404080F35D
:1031180011884FF0040002DF0399B1F5803F23D2F4
:1031280000231846009A9568084485429CB203D348
:103138000133082BF8D11C460D4D53682846AB6067
:10314800D368EC82A982EB630EF017FB044640B902
:10315800084E28466E60FFF711FE28466E60FFF79E
:103168001BFE204604B070BD6FF02404F9E700BFD1
:1031780054130020A8020020044608B54FF020028E
:10318800EFF3118382F31188BFF36F8F0EF0C4FB46
:10319800204601F0C3FA03480DF061F900F0E2FFA0
:1031A800FCE700BF656B010010B507480BF056FC43
:1031B800064C074B1860204601F090FC2046FDF7AE
:1031C80013FD002010BD00BF99670100DD3100002C
:1031D800941300200A2838B50446074D04D12868FE
:1031E80083680D215B68984728688368E1B25B684B
:1031F8009847204638BD00BF9413002070B5044698
:103208000C250D480E46231A9A100C4B40215343A7
:10321800DBB25D4305F1780318440EF0D3FA011EC2
:1032280004DB074B2B445B68984700212046334654
:10323800BDE87040184700BFA8130020B76DDBB683
:10324800605D01002DE9F0410F4C104D031B9B10F0
:103258005D43EBB20C255D43074605F178000E4649
:10326800204440210EF0C7FA011E08DB084B2C440D
:10327800C4E91C36074B5B59BDE8F041184738468E
:103288003346BDE8F0411847A8130020B76DDBB6F8
:1032980061180100605D01002DE9F8430022012159
:1032A8000646052000F00CFF052000F0EBFE114853
:1032B8000AF0E2FD104B984219D111F0BDF8002434
:1032C8004FF01C080C27DFF83490F568494608FBD6
:1032D80004500DF02DF9002807DB012307FB0455E6
:1032E8001C44042CAB67F0D10020BDE8F8836FF0D4
:1032F8000400FAE73D3300000000AD0B905D0100CB
:1033080001460C2300224B43084870B5C418783393
:10331800D4E91C56184422670EF08BFA2DB13246B8
:103328002B46BDE870400248184770BDA81300201E
:1033380028050020052811D8DFE800F0030E10103A
:103348000C0A074B986F10F0070007D1FFF7D8BF9A
:103358000220FBE70320F9E70120F7E7704700BFE9
:10336800A813002008B54FF02003EFF3118183F371
:103378001188BFF36F8F124A136843F0020013F0ED
:10338800010310600CD04FF05022D2F80C34D2F860
:103398000C2413F0010303D00A480EF04AFA012363
:1033A80081F31188BFF36F8F23B1BDE80840002077
:1033B800FFF7A6BF0120BDE808400AF06DBD00BFB9
:1033C8004814002020140020074BD3E8EF2F22F0E8
:1033D8000201C3E8E01F0028F7D1D30702D4012077
:1033E8000AF0AEBD704700BF481400207FB5002228
:1033F8000123CDE9022304ABCDE90433094A6B4626
:10340800CDF800D0CDF804D00EF058FA002805DB2E
:103418004FF48042002368460CF0D0F907B05DF8FD
:1034280004FB00BF971801002DE9F8430122064666
:103438003949D1E8EF3FC1E8E02F0028F9D133B985
:10344800364937484B60CB608A600DF084F8731EAC
:10345800012B32D8012E07D14FF05023D3F81C345A
:1034680003F00303022B28D011F06BFE044618B9B1
:103478002C4B1B78002B47D14FF02003EFF311851D
:1034880083F31188BFF36F8F0124274FDFF89C80E7
:10349800DFF89C904FF05022D2F81834D2F8182454
:1034A800D2030CD503F00303022B01D0012E06D161
:1034B80024B385F31188BFF36F8FBDE8F883C4B1D7
:1034C800284600F05DFE4FF05022D2F81835DBB2E6
:1034D800012BDFD139680029DCD000213960396837
:1034E8000221C2F818152022C8F88021C9F8003036
:1034F800D0E7002121200CF013F9E4E74FF0502326
:103508000222C3F80423D8E74FF0502302220546CD
:10351800C3F80823B9E700BF4C1400209813002013
:10352800C41300201B2E00200451005000E100E0CD
:103538000850005010B500F05BF9041E0CDA214663
:103548000D4A0E4B0E48D21AD208920142F00102DF
:103558000DF0B9FB204610BD0A4803F097FB041E86
:10356800F8DA054A054B2146D21AD20892010648D4
:1035780042F00102ECE700BF385A0100005A01008E
:10358800C36B01009C5D0100EA6B010010B5017D71
:103598000446022912D004290FD009B3114A124B4C
:1035A8001248D21AD208920142F001020DF08BFBA8
:1035B800204609F045FE002010BD052104F1080051
:1035C80010F067FD204600F039F9011EF0DA054ACF
:1035D800054B0748D21AD208920142F00102E5E7EA
:1035E8000121EBE7385A0100005A0100146C010070
:1035F800246C01002DE9F3418046064618F8010BBA
:103608000D46042801F1FF3310D0052800F09380FF
:10361800022840F0C980032B5CD86949694B6A4885
:10362800C91AC908890141F0010109E0012B0CD828
:103638006349644B6548C91AC908890141F0010109
:103648000DF034FB02B0BDE8F08173783E2B19D140
:10365800F778022F18D0A7F10D035F425F410222CD
:10366800414601A80EF055FE9DF80530033D9D42E8
:103678000CD05349534B5648C91AC908890141F01F
:103688000101DDE70027EAE70127E8E70022002338
:1036980039469DF8040001F099FC044650B9002F02
:1036A800D0D14749474B4B48C91AC908890141F04D
:1036B8000101C5E700F10807022201A9384610F008
:1036C800CFFC2A46F11C384610F0CAFC204603F00D
:1036D800A9FAB7E700220023032001F03BFC0446C7
:1036E80000B3042241460DEB02000EF012FE042244
:1036F80004F1080738460DEB020110F0B1FCBDF8E3
:103708000630053D9D424CD02D492E4B3248C91AF2
:10371800C908890141F001010DF0C8FA204609F0F5
:103728008FFD8FE72649274B2C48C91AC9088901FC
:1037380041F0010184E7032B08D82149214B28488F
:10374800C91AC908890141F0010179E7002200235B
:1037580001F000FC0446D8B1042241460DEB0200FA
:103768000EF0D7FD042204F1080738460DEB0201DC
:1037780010F076FCBDF80630053D9D4211D0104989
:10378800104B1848C91AC908890141F00101C3E75B
:103798000B490C4B1448C91AC908890141F00101A9
:1037A8004EE72A46711D8EE7064B054A0146D21A96
:1037B800D20892010D4842F001020DF084FA41E767
:1037C800385A0100005A01009D6C01003C6C010050
:1037D8005D6C0100816C0100D66C0100BC6C0100BD
:1037E800F86C0100316D0100176D0100536D010087
:1037F8000B4908B50B48FFF7FBF9011E0BDA0A4B1A
:103808000A4A0B48D21AD208920142F001020DF07E
:103818005AFA084808BD084B00201960FAE700BFAB
:103828000F1901007B6D0100005A0100405A010088
:10383800866D01002AF8FFFF50140020024B828990
:1038480081681868FFF70CBA5014002008B5024BBD
:103858001868FFF7FBF908BD50140020044A1368E4
:10386800C81A20F07F40034413600CF021BA00BF4F
:10387800601400202DE9F0474FF480374FF000091D
:10388800860000F1500406F15026A40006F58036A3
:10389800A4B204F15024D6F84035DFF86C8021F04A
:1038A8007F4504F580348740D8F804A5A3EB0A03C4
:1038B80023F07F432AF07F42012BC6F8402502D12E
:1038C800132011F044FC0AF10202AB1A23F07F43E3
:1038D800B3F5000F88BF1546C4F80090236825F09B
:1038E8007F43C8F84473C6F84035D8F804359A457C
:1038F80006D0EB1A023B23F07F43B3F5000F01D843
:10390800BDE8F0872B46CFE700500150F8B50024FA
:1039180027460F4E0F4B104A18461D6804B1F8BDD4
:10392800D2F80413C903FAD531680029F7D03460F6
:1039380031684FF48031C2F848130124D2F8401599
:1039480025B100205A681F60A847E3E70560E6E74D
:1039580040510150541400200050015038B5002443
:103968004FF480334FF400120D4D0121C5F808457E
:10397800C5F804330B4B1520C3F88021224600F00C
:103988009FFB152000F07EFB0123074A02201360ED
:10399800064A2B601360FFF747FD204638BD00BF7D
:1039A8000050015000E100E0085001505C14002074
:1039B800134BB0F1FF3F08BF1846013800281CDD43
:1039C8009842A8BF18460F4BD3F804250E4B196828
:1039D800521A12F4000F18BF002022F07F4301335F
:1039E8000A4A03440A48106000205060044A93427F
:1039F80094BFC9188918FFF73DBF0020E3E700BF4F
:103A0800FFFF7F0000500150601400205414002074
:103A1800653800004FF02002EFF3118382F311881C
:103A2800BFF36F8F064AD2F80405064A1268801A57
:103A380020F07F4083F31188BFF36F8F704700BF7A
:103A480000500150601400204FF02003EFF3118262
:103A580083F31188BFF36F8F0649074B0868D3F8C3
:103A6800043582F31188BFF36F8F1B1A23F07F434D
:103A780018447047601400200050015001480CF0B1
:103A88000FBB00BFB05D010008B508B34368042B45
:103A980007D0082B13D0F3B100680BF04FFA0020C1
:103AA8000CE000220368D3E8EF1F012903D1C3E823
:103AB800E02F0028F7D1094808BF104608BD036861
:103AC80000201B78064A03F5807342F82300F5E7C7
:103AD8006FF4E040F2E70348F0E700BFE98FFFFF2B
:103AE80000000350EA8FFFFF10B5044618B90D4BCC
:103AF8000D485B689847616808290DD031F00403C8
:103B08000AD011F0020108D0214608480BF072F9DA
:103B1800002323600023636010BD142220680EF088
:103B280023FCF7E7F0030020C86D010064140020AF
:103B380010B5044618B9164B16485B689847636871
:103B4800042B23D0082B21D0CBB92368BBB94FF065
:103B5800FF324FF0FF3321460F480BF019F908B92F
:103B680023681BB90A4B0D485B689847142200214B
:103B780020680EF0F9FB636843F002036360206875
:103B880011F0FFF8636843F00103636010BD00BFE4
:103B9800F0030020C86D010064140020EE6D0100E0
:103BA80008B540B34368042B0BD0082B16D003B3D9
:103BB80000684FF0FF324FF0FF330BF047F958B170
:103BC80015E001220368D3E8EF1F002903D1C3E8F9
:103BD800E02F0028F7D10AD1002008BD0368074A62
:103BE8001B7803F5807352F82330002BF4D0044877
:103BF800F3E70448F1E76FF4E040EEE70000035014
:103C0800E98FFFFFEA8FFFFF08B50649402314221A
:103C1800054811F09BF8BDE80840044904480CF039
:103C280091BA00BF8014002064140020C85D010010
:103C3800B85D0100F0B50746264E8DB001AD0C46C3
:103C48000FCE0FC50FCE0FC596E8070085E8070011
:103C58003846002F39D0002C39D0381F024621466B
:103C680010344B780D781B0443EA0563CD78043192
:103C78002B4311F8025C8C4243EA052342F8043FC7
:103C8800EFD10421144C8A07036916D1C3F3074204
:103C9800A55C1A0EA25C42EA0562C3F30725655DBE
:103CA800DBB2E35C42EA054242EA03220CAD21F0B2
:103CB80003032B4453F82C3C534050F8042F013194
:103CC80053402C290361DED101200DB0F0BD204600
:103CD800FBE700BF145B01001B6E01002DE9F043F8
:103CE8001546064689B0002858D0002959D0002A20
:103CF80059D010230A46684619462C4C0DF010FE80
:103D0800294668460DF024FEA14605F11007A035A6
:103D1800E8466A4610231178013B615C02F8011BF2
:103D2800F9D168460DF059FE694604A80DF08EFEDB
:103D380001A905A80DF08AFE02A906A80DF086FEC5
:103D480003A907A80DF082FE1023684619460DEB5B
:103D580003020DF0E5FD3946684610370DF0F8FD11
:103D6800AF42D5D1102498F80030013C19F803303F
:103D780008F8013BF7D168460DF02FFE2946684642
:103D88000DF0E6FD10236A46194630460DF0C8FDD1
:103D98006846102221460DF0D0FD012009B0BDE88B
:103DA800F0830846FAE71046F8E700BF1B6E0100EB
:103DB8002DE9F04F002703689DB003934368DFF8AF
:103DC800B8A104938368039C0593C3680291069382
:103DD800036907934369DDE906E208938369099358
:103DE800C369DDE908CB98460A93059B0193049BB8
:103DF8000093029B019EDD590CAB2DBADD515AF898
:103E0800043B043705EB03094FEAF22585EAB215AE
:103E180085EA72654D442BEA020302EA0C0983EA3B
:103E280009032B444344DDE900154FEA74384D403B
:103E380088EAB408254001EA060985EA090588EAFE
:103E4800B458A844402F03EB0E054344B646D84661
:103E580040F081804FF0100A46490B9151460AF113
:103E6800010A1CAE0AF00F0706EB870757F8406CEB
:103E780001F00F094FEAB64801F10E070931029621
:103E880088EAF61801F00F011CAE06EB890906EB6B
:103E9800810107F00F0751F8401C06EB870759F816
:103EA800406C57F8407C3144029E4FEAF74E88EA4E
:103EB800D6088EEA774E8EEA972E414471440B9EBF
:103EC80049F8401C4FEAF52905EA020889EAB519BC
:103ED8002CEA050756F804EB87EA080789EA7569AA
:103EE8004F4477440B96009E3944594404EA060E21
:103EF80084EA060B019E4FEA73370E4487EAB3073C
:103F08000BEA030B8BEA0E0BB04687EAB357009E09
:103F18005F44BAF1400FE3463944019623D1039E2A
:103F28000E44049906601944059B41602344009996
:103F38008360069B0B44C360079B43440361089B53
:103F48002B444361099B134483610A9B6344C36107
:103F58001DB0BDE8F08F0099E346CDE900419446D5
:103F68001C462A4645E7944600942A461C46454680
:103F78000B4673E71C5E0100DC5D010010B50446CA
:103F8800C8B1702200210DF0D8FC0B4B0B4A0C492C
:103F9800C4E900230B4B0C48C4E902130B4BC4E9DA
:103FA800040301200A4BA36103F17453A3F523030F
:103FB800A3F69243E36110BD85AE67BB67E6096A65
:103FC80072F36E3C3AF54FA57F520E518C68059BF3
:103FD800ABD9831F0A4A0B4993680968D867C3F8A5
:103FE800801009494B6843F080534B60002383F3EA
:103FF8001188BFF36F8F9368D3F88000704700BFB4
:104008009C1C00205864010000ED00E013498A68F8
:104018004FF038001044EFF3098C80E8F01F20209F
:1040280080F31188BFF36F8F0D4F4FF000668A6AD7
:104038008A603E60D06F0023D36780F3118802F155
:10404800380090E8F01F8CF3098802F1000004B5ED
:104058000EF060F8BDE80440704700009C1C00208A
:1040680004ED00E01EF0040F0CBFEFF30880EFF33F
:104078000980816911F8021C0229FFD001B50EF0F0
:104088004DF801BD43B2002B08DB012200F01F00F0
:1040980002FA00F0024A5B0942F82300704700BFA9
:1040A80000E100E0054B420953F82220012300F00B
:1040B8001F0003FA00F01040704700BF00E100E065
:1040C80043B2002B01F10101ACBF03F16043064B81
:1040D8004FEA4111C9B2ABBF03F5614300F00F00CD
:1040E80083F800131954704714ED00E042F8203C9F
:1040F800009B0B4942F81C3C019B21F0010142F84E
:10410800183C029B42F8081C42F8143C4FF080739C
:1041180042F8043C0023203A8265C367704700BF19
:10412800F1050100044608B50E46154600F036FBB9
:10413800084B9C60E36E83F30B88284686F3098856
:10414800002163B681F31188BFF36F8F002200232B
:104158000CF04AFA9C1C0020014910220A607047A2
:1041680010ED00E072B6404080F31188BFF36F8F06
:10417800BFF34F8F30BF62B6BFF36F8F704700BF7A
:1041880072B6494081F3118820BF80F3118862B666
:10419800704700BF73B506460C4601B3134B144D68
:1041A8001448ED1AED08AD0145F00105ADF80050D1
:1041B800D1E9012309680CF0B3FDADF80050D4E94A
:1041C8000423E1680C480CF0ABFD2A46E1690B4872
:1041D8000CF079FD2A46A16909480CF074FD2146C6
:1041E800304602B0BDE870400AF066BC005A0100D3
:1041F800B85A01001B6F01004A6F0100796F010076
:10420800886F010030BFFFF7FDBF00BF0E4A08B539
:104218000E4B22F07F029A60BFF34F8FBFF36F8F70
:10422800D3F8882022F47002C3F88820EFF31483AF
:1042380023F0040383F314880AF0D0FC0BF040FC4D
:1042480000F07EFA0AF0EEFC0000000000ED00E04D
:1042580001B572B60B4A506A00281EBF0021516290
:1042680010F006FD62B6EFF30580A0F110004FEAEA
:10427800C0000549014409C99847BDE80140034900
:10428800084700009C1C00201C570100094700003B
:104298000CF0C7FC202080F3118808484FF4006117
:1042A800401880F30988EFF314800221084380F353
:1042B8001488BFF36F8FFFF7A9FF0000284C002078
:1042C800EFF30880EFF3098101B5724600F040F979
:1042D80001BD00BF70B5284B284C294DE41AE408ED
:1042E800A40144F00106314626480CF0DFFCAA6A16
:1042F800930103D5314624480CF0D8FCAB6ADD01A4
:1043080004D5224844F001010CF0D0FC1C4DAE6AE3
:1043180016F4801605D01E4844F001010CF0C6FCC6
:104328000226AB6A180304D51A4844F001010CF0C0
:10433800BDFC134DAA6A510304D5174844F0010186
:104348000CF0B4FCAB6A9A0304D5144844F001019C
:104358000CF0ACFC0A4DAB6ADB0304D5104844F002
:1043680001010CF0A3FCAB6A30466FEA03436FEA25
:104378001343AB6270BD00BF005A0100B85A010078
:1043880000ED00E0B66F0100CE6F0100E16F0100A3
:10439800FB6F010025700100437001006870010087
:1043A800827001002DE9F041284B294C294DE41A6F
:1043B800E408A40144F0010807460E462648414691
:1043C8000CF074FCAA6AD00603D5414623480CF0C9
:1043D8006DFCAB6A190704D5214844F001010CF0C3
:1043E80065FC1C4DAB6A9A0712D544F0010841469A
:1043F8001C480CF05BFC696BAB6A1B0608D542468F
:1044080019480CF060FC1FB1AB6A23F08003AB6263
:10441800104DAA6AD00704D5144844F001010CF0E5
:1044280045FCAB6A990604D5114844F001010CF02B
:104438003DFC0020074B9A6AD20658BF9A6A9A6ACE
:1044480042F0FF029A623070BDE8F081005A010024
:10445800B85A010000ED00E0AD700100C370010022
:10446800F670010009710100217101003771010026
:10447800567101002DE9F0412A4B2B4C2B4DE41AC3
:10448800E408A40144F0010807460E4628484146BE
:104498000CF00CFCAA6AD10403D5414625480CF05F
:1044A80005FCAB6A1A0504D5234844F001010CF059
:1044B800FDFB1E4DAB6A9B0512D544F00108414631
:1044C8001E480CF0F3FBA96BAB6A180408D54246EA
:1044D8001B480CF0F8FB1FB1AB6A23F40043AB6236
:1044E800124DAB6A590504D5164844F001010CF089
:1044F800DDFBAB6ADA050DD5134844F001010CF079
:10450800D5FB0020094A936A43F47F4393623070D5
:10451800BDE8F081AB6A9B04F3D50C4844F0010177
:10452800EDE700BF005A0100B85A010000ED00E0B5
:10453800857101009B710100F6700100AC710100EA
:10454800C5710100DA710100F571010056710100B1
:104558002DE9F041564B0F465E6800258AB0C6F338
:10456800080485F31188BFF36F8F02F07F43B3F11E
:104578007F4F0DD102F00C03082B0BD14D494E4B48
:104588004E48C91AC908890141F001010CF08EFB97
:104598002F4603E0120701D40746012500238DF8B2
:1045A8000730E31E092B6AD8DFE803F005585C3CA6
:1045B8006969696969604FF000083F4B3D4E4048A2
:1045C800F61AF608B60146F0010631460CF06EFB05
:1045D800374B8DF80780DC6A14F0020405D03146A9
:1045E80038480CF063FB00241FE0DB6A5B001CD535
:1045F800314635480CF05AFB344B1B782BB101205F
:104608000DF10701FFF7CEFE0EE0314B1B782BB101
:1046180001200DF10701FFF72DFF05E02D4B1B8849
:104628009BB213B1FFF756FE04469DF8073093B9C5
:104638002022394602A80DF06CFE099B9DB3C3F3F6
:10464800080222B96FEA53236FEA432309932046ED
:1046580002A9FFF79FFD0AB0BDE8F08100200DF127
:104668000701CFE700200DF10701D4E71149124BEC
:104678001948C91AC908890141F00101B1E70E4A70
:104688000C4B16489B1ADB0816F4F87F4FEA831385
:10469800134943F0010318BF0146A4F11002114861
:1046A8000CF025FB9FE723F4FF7323F00103CDE70C
:1046B80000ED00E0B85A0100005A01000D72010037
:1046C800387201004F7201007072010028ED00E09D
:1046D80029ED00E02AED00E08F720100DA72010096
:1046E800C5720100F3720100044B5A6942F01002CE
:1046F8005A615A6942F480625A61704700ED00E0DD
:10470800044B9968986A884203D003494FF0805255
:104718000A6070479C1C002004ED00E0BFF34F8F37
:104728000549064BCA6802F4E0621343CB60BFF345
:104738004F8F00BFFDE700BF00ED00E00400FA0561
:10474800002320210348C2180133452B82F80013A7
:10475800F9D1704700E100E008B50E4B9B68834231
:1047680007D1EFF3058393B10B4A536843F08053A5
:1047780053600AF027FE4FF02003EFF3118083F314
:104788001188BFF36F8FBDE8084010F0F8BB0BF03D
:1047980011F900BF9C1C002000ED00E01FB5094C7A
:1047A800094A23460121094800F038F900230393F8
:1047B800074B0121E41A01A80193029400F038F98B
:1047C80004B010BD0000072000000020DC5E0100DE
:1047D8001008002010B50B680C7A23F01F0204F0B3
:1047E8001F031A43CB68640923F01F03044943EAF3
:1047F800440343F001038860CA600B6110BD00BF29
:1048080090ED00E0072810B50DD9084B084A01467D
:10481800D21AD2089201074842F001020CF053FA6A
:104828006FF0150010BDFFF7D5FFFBE7005A010038
:10483800A05A01000A7301002DE9F04F8946144679
:1048480006464FF00008544D85B0C84533DAD6F80F
:1048580004A0BAF1000F4DD0BAF11F0F1ED91AF0FB
:104868001F0F1BD1D6F800B01BF01F0F16D15846EA
:104878000DF078FC07460AEB0B0001380DF072FCCE
:1048880087421CD06FF01507444A454B3946D21A67
:10489800D2089201434842F0010208E041463F4AEB
:1048A8003F4B4148D21AD208920142F001020CF063
:1048B8000AFA6FF01504204605B0BDE8F08F17F12D
:1048C800160FE1D0631EBB42DEDBAF60E968AF6064
:1048D8002B6921F01F0143F01F0BD6E900321A445F
:1048E800994202F1FF3A1AD1D34507D13146F8B2BD
:1048F8000DF01FFC08F101080C36A6E73146AF6041
:10490800EB6822F01F0203F01F031A43EA60E0B2CB
:104918000DF00FFC10F1160FCBD0441CEAE7013B59
:10492800D345E0B223F01F03AF6006D12A693146B0
:1049380002F01F0213432B61EAE7296901F01F0106
:104948000B432B6131460DF0F4FB10F1160FB0D07C
:10495800AF60EA689DF808300BF1FF3B62F304038F
:104968008DF808302B699DF808205B0863F347121F
:104978008DF80820D6E900321344009323F01F0372
:104988005B44A3EB0A03013023F01F036946C0B25E
:104998000393FFF737FFBDE790ED00E0A05A010051
:1049A800005A010053730100307301000522034BC4
:1049B8005A60BFF34F8FBFF36F8F704790ED00E0E1
:1049C800BFF35F8F0022014B5A60704790ED00E003
:1049D80038B50E4C2568082D14D8FFF7F1FF0020D4
:1049E8000B4B0C4A1A63854205D10B4B1D70FFF720
:1049F800DDFF002038BD616801EB0011FFF7EAFE1A
:104A08000130F0E74FF0FF30F4E700BFE85E010047
:104A180090ED00E0AAFF4400172D002010B5034CCC
:104A28002278FFF709FF207010BD00BF172D002066
:104A38002DE9F74F264D8A4606464FF00008AB464B
:104A4800244FD0451BDAD6F80490B9F1000F39D0BD
:104A58003168084601910DF085FB0199044609EB80
:104A6800010001380DF07EFB84424FF014021A4B0E
:104A780008D06FF0150302FB08F84BF8083003B0B4
:104A8800BDE8F08F14F1160F2C60F8D01978A14208
:104A9800F5DD02FB08B0BC60BC60FC6800F10801F1
:104AA800007B64F30400087138690C79400860F3EE
:104AB80047140C71F96821F01F016960396921F008
:104AC8001F01296108F1010814350C36B9E700BF48
:104AD8008019002090ED00E0172D0020014B186090
:104AE800704700BFD80200204FF08053094A0020C9
:104AF800C2F80432C2F8003242F8D43C42F8D83C3A
:104B08001022054BC3F840244FF05023C3F8140675
:104B1800704700BF00288450003000500E4B4029D9
:104B280028BF402170B51D460C4C4618B04203F111
:104B3800020304D1002305F81130074870BD02783C
:104B48001209A25C03F8022C10F8012B02F00F02E4
:104B5800A25C03F8012CE9E7182D0020E47301009A
:104B680030B503788BB0044607AD032B21D8DFE8B6
:104B780003F0021A1C1E124928460DF072FB6378D6
:104B88001E210493A3780F4A0393E37805950293B3
:104B980023790D48019363790093A3790BF06CFC9A
:104BA80009480BB030BD0949E6E70949E4E7094976
:104BB800E2E70A212846084A0BF05EFCDFE700BF5F
:104BC8009F730100C1730100992D0020A673010095
:104BD800AD730100B7730100D48A010038B5144BD6
:104BE800144C154DE41AE408A401144844F00301D8
:104BF8000CF05CF8EA7929461148C2EBC202FEF7CC
:104C080097F8014620B10F4844F001020CF05BF818
:104C1800EA790D490D481201FEF78AF8014630B1CC
:104C280044F001020A48BDE838400CF04CB838BDE1
:104C3800005A0100605A010000000020FC730100C6
:104C4800067401000C74010038010020277401006B
:104C58002E7401002DE9F341054616461F4660B93A
:104C68004149424B4248C91AC908890141F001012A
:104C78000CF01CF86FF0010419E001A90CF0D0FC4D
:104C88003C490246804628460DF024FB044678BB82
:104C9800394DD5E8AF3F5B070DD53349334B37481E
:104CA800C91AC908890141F002010BF0FFFF20462B
:104CB80002B0BDE8F081943D072229463846B04746
:104CC800062810D8294B28492D48C91AC90889012E
:104CD80041F001010BF0EAFF0722214628460DF0BA
:104CE80043FBEC71E3E70723B0FBF3F0E871DEE781
:104CF8004246284623490DF0EDFA0446A8B9224950
:104D080041223846B047011E0ADA184B164A1F4896
:104D1800D21AD208920142F001020BF0D4FFC6E782
:104D28001B48014481F87841C1E7424628461949A1
:104D38000DF0D0FA044600289CD1102238461649B6
:104D4800B0470F28B3D8094B07491448C91AC908EE
:104D5800890141F001010BF0A9FF102221460E48FC
:104D68000DF002FBA3E700BF605A0100005A0100E2
:104D78004A740100B4730100940000206B740100B0
:104D88008F740100C97E010078010020B47401000D
:104D9800000000202A74010038010020E674010098
:104DA8002DE9F04188B0DDF838809C795D791E796D
:104DB800DF7893F802C093F801E01B78B8F1000F90
:104DC8000ED0CDE90638CDE904CE1346CDE9026709
:104DD800CDE90045084A0BF04FFB08B0BDE8F0816B
:104DE800CDE905E3CDE9037C1346CDE90156034A35
:104DF80000940BF041FBF0E70475010028750100F1
:104E08000749D1E8EF3F43F00102C1E8E02F00284D
:104E1800F7D1DB0703D40348083910F036B87047D8
:104E2800E4020020D010002038B5194C94F87831ED
:104E380013B9184802F04EF8E3799BB902F0E4F888
:104E4800E3797BB902F0BEF9044658B11249134B15
:104E58001348C91AC908890141F001010BF026FF5E
:104E6800204638BD0F4DD5E8AF3F9B0701D401F070
:104E780021FFD5E8EF4F24F40043C5E8E23F002ABC
:104E8800F7D114F40044EBD0FFF7BAFF0024E7E7AA
:104E98000000002049750100605A0100005A010015
:104EA8004F7501009400002010B5FEF7ADF80446D8
:104EB80050B1064A064B0146D21AD208920105485B
:104EC80042F001020BF0FFFE204610BD605A0100BF
:104ED800005A010073750100F0B402780446012AF3
:104EE8000B4616D0022A2CD08AB90D46184A02F170
:104EF80010072E4610685168083203C6BA42354674
:104F0800F7D11278327062885A73120A9A73F0BC19
:104F180070470D460E4A02F110072E461068516878
:104F2800083203C6BA423546F7D112783270626841
:104F3800C2F307215A73120CDA73120A99731A749E
:104F4800E5E70146F0BC112218460DF0E2B900BFB2
:104F5800A7750100012838B505460CBF0648074863
:104F68000FF022F8044620B1012108300FF03BF879
:104F78002575204638BD00BF98070020D0060020C0
:104F880002460B4670B54FF02001EFF3118581F30F
:104F98001188BFF36F8F00200B49D1F80041C1F889
:104FA800000185F31188BFF36F8F24B9BDE8704005
:104FB8000120FFF7CFBF0121A081217504F108006E
:104FC8000FF011F8204670BD0000002070B50446AF
:104FD8000F2C0D461046194605D80D2C12D9BDE8E0
:104FE8007040FFF7CDBF132C0CD10B480EF0DCFF3F
:104FF800044628B1012108300EF0F5FF012323757E
:10500800204670BD02460B460DB10448EEE701206C
:10501800BDE87040FFF79EBFC007002020070020B2
:1050280005490B6833B1826800200860117801B91E
:10503800501C1847704700BFAC19002070B58CB0E1
:105048006C460646094D0B2E0FCD0FC40FCD0FC46D
:1050580095E80F0084E80F009DBF0CAB03EB8606B4
:1050680056F8300C02480CB070BD00BF405B010020
:10507800AA7601000549064A8368521AD2089201A5
:105088001978044842F002020BF01DBE005A0100D4
:10509800305A0100B2760100F8B506460025094FDE
:1050A800FB79ECB2A34202D86FF0010408E0C4EB2C
:1050B800C401304639440DF077FA01350028EFD1A4
:1050C8002046F8BD00000020436837B5044658055F
:1050D80002D5002003B030BD22692AB1D907F8D51E
:1050E80003F02403242BF4D01A4D2078EB79834263
:1050F800EFD90023C0EBC000694628440093CDF8DF
:1051080003300DF051FA0028E3D06068C20706D4D6
:1051180095F83430082B02D8A3689F2BD9D910F002
:10512800300F02D02369002BD3D0C30601D42369E2
:1051380043B9D4E902239A42CBD81F2AC9D9B3F577
:10514800804FC6D800F46030B0F5603018BF012039
:10515800C0E700BF00000020F8B586686FF01001B6
:105168000E480DF013FA337843B9711C40220C48ED
:105178000DF0CFF8082109480DF01FFA094D084F26
:105188002C680CB92C60F8BD32782368002A0CBF53
:105198003846002098476468F3E700BF9400002071
:1051A800B72D0020B01900202DE9F04106460F4622
:1051B80003F04AF80446B0B93946304607F046FECF
:1051C800054610B1284607F051FE3946304605F02D
:1051D800C1FE0F4B1B68CBB11B6ABBB139463046C9
:1051E800BDE8F041184783781321012B4FF00003E5
:1051F80012BF1D46D0F8B450C0F8B43003F08EF892
:1052080020460DF0ECFB002DDCD1D5E7BDE8F081A0
:10521800B8190020836810B51C88204602F01CFFCE
:1052280060B9084A084B2146BDE81040D21AD20896
:105238009201064842F001020BF045BDBDE810405E
:105248000DF0CDBB305A0100005A0100DA7601009A
:1052580038B583681A78DAB9B3F80150284602F0ED
:10526800FBFE044660B90B4B0B4A2946D21AD208FA
:1052780092010A4842F00102BDE838400BF023BD14
:10528800012102F0F5FE2046BDE838400DF0A7BB2D
:1052980038BD00BF005A0100305A0100FE760100F7
:1052A800F8B586683578F5B9B6F80170384602F071
:1052B800D3FE044660B90C4B0C4A3946D21AD208C0
:1052C80092010B4842F00102BDE8F8400BF0FBBC2C
:1052D800F3782946037302F0CBFE20462580BDE80B
:1052E800F8400DF07CBBF8BD005A0100305A0100AF
:1052F800FE76010008B5012108300EF0DBFE064BF2
:10530800064A0178D21AD2089201054842F00102F1
:10531800BDE808400BF0D7BC005A0100305A010024
:105328002477010010B50A4A0A4C81898068A41ABA
:10533800FFF7F4FBFCF77EFAE408A40144F002044A
:1053480001462246BDE8104003480BF0BCBC00BF34
:10535800005A0100305A01004677010073B585688C
:10536800B5F80160304602F077FE044660B91E4A7F
:105378001E4B3146D21AD20892011D4842F0010252
:105388000BF0A1FC02B070BD2B78BBB92A79EB7881
:1053980043EA0223A0F89E30AA796B7943EA0223F4
:1053A800A0F8A430EB792A7A43EA0223A0F8A630C1
:1053B80002F03EFC20460DF012FBE3E71A2BF9D170
:1053C800C378012BF6D10A2104300DF001F9002829
:1053D800F0D1D4F8A03069460093D4F8A83020461C
:1053E800019303F0ABFAE5E7305A0100005A0100D7
:1053F800DA7601002DE9F04104462848C4EBC407D9
:1054080015460E46804686B0074461B300236946B8
:1054180030460093CDF803300DF0C6F818B3314686
:1054280038460DF0C7F81026002306FB0484CDE9A2
:105438000233CDE9043304F59C742DB33246284673
:1054480002A90CF056FFF8B13246294620460CF066
:1054580060FF13480DF0A5F8830701D5FFF7D0FCCE
:1054680006B0BDE8F08102A80DF061F802A8FFF7C8
:1054780013FE0028F7DA384602A90DF09BF8002E33
:10548800D1D039463046CCE71021204602F0F8FA50
:10549800002DDED0102221462846D8E70000002043
:1054A8009400002010B5C37A044613B9012343724F
:1054B80010BDD0F8B430FBB15A7BD1071CD5D20649
:1054C80018D51B7B102B15D104236372A27A637A3B
:1054D8009A42EDD9094B0A490A48C91AC9088901EB
:1054E80041F001010BF0E2FB2046BDE81040052128
:1054F80002F014BF0323E8E70223E6E7005A01009D
:10550800305A01006A77010070B58568B5F8016006
:10551800304602F0A1FD044660B9134A134B3146E8
:10552800BDE87040D21AD2089201114842F0010237
:105538000BF0C9BB297861B129298EBF08220D4B10
:105548005A5C204602F0DEFB2046BDE870400DF0B4
:1055580046BA8378012B04D107F00EFB2046FFF7EB
:10556800A1FF00222978ECE7305A0100005A010017
:10557800FE7601006180010070B58568B5F80160AC
:10558800304602F069FD044660B9154A154B3146AC
:10559800BDE87040D21AD2089201134842F00102C5
:1055A8000BF091BB297861B129298EBF08220F4BD6
:1055B8005A5C204602F0A6FB2046BDE870400DF07C
:1055C8000EBA8278EB78012AC37205D10BB107F0C5
:1055D800D3FA2046FFF766FF00222978E9E700BFE3
:1055E800305A0100005A0100FE7601006180010076
:1055F80013B50C4C0146052294F8330002F06AFEFC
:1056080070B9094B694618689A889B790090ADF87B
:10561800042094F8330004228DF8063002F05AFE74
:1056280002B010BD00000020705B01002DE9F043BE
:10563800074685B090798846144607F045FD324EF6
:10564800864216D0314BA079314D0097ED1A019062
:1056580007F03AFDED08AD0145F00205CDE9020677
:105668002B46042269462B480BF076FB05B0BDE8B3
:10567800F083204607F030FD4FF00C09264D09FB5A
:1056880000535B88BB4211D0204B214E2046F61AAE
:1056980007F022FD09FB0050F608B60146F00206A5
:1056A8004288334639461D480BF021FB204607F057
:1056B80013FD0C2606FB005043686BB1B8F1000FD0
:1056C8000AD1204607F008FD06FB005043681A7A05
:1056D800D3E900010CF087FF204607F0FDFC0C26FB
:1056E80006FB00508368002BC0D0204607F0F4FC6E
:1056F800704305F80080204607F0EEFC06FB0055D5
:10570800A8680AF035F8B1E770070020005A0100D0
:10571800305A01009077010094190020C5770100E4
:1057280073B50546084602EBC3031178A9421AD09F
:1057380008329A42F9D18689164B174C314680684F
:10574800E41AFFF7EBF9FCF775F8E408A40144F054
:1057580002040346324629461048ADF800400BF0D3
:10576800DFFA02B070BD818953788B420DD9094A9E
:10577800094B0B489B1A2A46DB089B0143F001039F
:1057880002B0BDE870400BF0B2BA536802B0BDE891
:1057980070401847005A0100305A01001A78010079
:1057A800F87701002DE9F047474B484DDFF83C8179
:1057B800ED1ADFF83C91464FED084FF0FF324FF0FD
:1057C800FF3340460EF0F5FB017D0446012946D023
:1057D800032973D18389032B0CD840F2AC433A4692
:1057E8003C493D480AF03BFE404080F311884FF0A9
:1057F800030002DF042104F108000EF05BFCFF2324
:105808004288B0F800A0A189CAF30B008A42E0825E
:10581800637509D0AB01314843F001030BF067FA17
:10582800204607F00DFD17E002F016FC064638B9D1
:10583800AA01E18A2A4842F001020BF044FAEFE794
:1058480002F0E0FE214660754FEA1A32304602F057
:10585800A7FA30460DF0C3F809F014FFADE78389C5
:10586800012B0CD841F2FB333A461A491A480AF080
:10587800F6FD404080F311884FF0030002DF02215B
:1058880004F108000EF016FC064600780CF05DFEE8
:1058980083070CD441F2FF333A4612490E480AF006
:1058A800DEFD404080F311884FF0030002DF06233D
:1058B8004A4621463078FFF733FFB1E7AA010A4884
:1058C80042F00102B9E700BF005A0100305A010056
:1058D8003C7801007078010089780100A678010001
:1058E800CA780100EC7801001A790100040100204F
:1058F800C05F010010B50121044608300EF0DAFB44
:105908002146BDE810400A23014A0078FFF708BF86
:10591800505F010008B56FF400510A480CF036FEDC
:105928006FF4805107480CF031FE07480CF039FE3F
:10593800830606D4BDE808406FF0100102480CF059
:1059480025BE08BD94000020280000202DE9F84F4E
:105958000026B1463C4D3D4BD0F80880ED1ADFF8E3
:10596800F8A0ED0898F800309E4201DBBDE8F88FFA
:1059780008EB8603B3F801B0B3F80370584602F099
:105988006BFB0446D8B100F1280B002F33D04FF041
:105998002003EFF3118283F31188BFF36F8FE3695C
:1059A800B3B1013BE36182F31188BFF36F8F2046E7
:1059B80002F03AF9013F09F0DBFEBFB2E5E7AA01C0
:1059C8005946234842F001020BF07DF90136C9E738
:1059D80063692BB1A16918688B42606108BFA06137
:1059E80082F31188BFF36F8F4BB9A901194841F0B1
:1059F80001010BF05BF920460CF0F1FFE6E74FF0F0
:105A08002002EFF3118182F31188BFF36F8FDA68F8
:105A1800E261C3F80090626AC3F80C908AB9C4E9DD
:105A2800083381F31188BFF36F8F002104F1300030
:105A38000CF0CEFD0028BAD1594650460FF025FA91
:105A4800B5E713606362ECE7305A0100005A0100C1
:105A58002E7901004A790100D0100020F0B5284BBA
:105A680005460F4685B0017803F128000CF099FD32
:105A780010F0400F1A4608D003F128000CF091FDF1
:105A8800C00502D51B7E8B4231D12E4616F8093B44
:105A9800694682F83330002330460093CDF803304E
:105AA8000CF082FD0446287864B1314602F0EAFB26
:105AB8000446F8B92878314602F0A0FA0546E0B164
:105AC80005210EE06FF0FF0302934FF6FF7302A962
